:020000040000FA
:10000000012883168701031788018901860183125D
:1000100003130D20891909281028EF3086000800E5
:100020000D20522052208D20522052208A20522012
:10003000522087205220522084205220522081209A
:10004000522052207E20522052207B2052205220CB
:1000500078205220522075205220522072205220A7
:1000600052206F20522052206C20522052206920B2
:1000700052205220662052205220632052205220CB
:100080006020522052205D20522052205A205220BF
:10009000522057209020902090200928C830A0009E
:1000A0000230A100A00B5228A10B522808003F30BB
:1000B000860008000630860008005B3086000800D5
:1000C0004F30860008006630860008006D308600DC
:1000D00008007D30860008000730860008007F3069
:1000E000860008006F3086000800BF3086000800D8
:1000F000863086000800DB3086000800CF3086009E
:100100000800E63086000800ED3086000800FD306B
:1001100086000800873086000800FF30860008004F
:100120000130870052205220003087005220522098
:020130000800C5
:00000001FF
