:020000040000FA
:1000000001288316031788018901860183120313CF
:1000100005080139031D0828132886010508013940
:10002000031D522808000D203F3086004520182867
:100030000D200630860045201D280D205B308600EF
:10004000452022280D204F308600452027280D20EE
:100050006630860045202C280D206D308600452016
:1000600031280D207D308600452036280D200730B0
:10007000860045203B280D207F3086004520402803
:100080000D206F308600452008286430A0003230F3
:10009000A1000A30A200A00B4B28A10B4B28A20BF9
:0400A0004B280800E1
:00000001FF
